:1000000012C021C020C01FC01EC01DC01CC01BC00C
:100010001AC019C018C017C016C015C014C013C02C
:1000200012C023C010C011241FBECFE5D4E0DEBF34
:10003000CDBF10E0A0E6B0E001C01D92A237B1072D
:10004000E1F785D0AFC0DCCF880F82B985EC86BFE1
:10005000089585EC86BF089584E986BF16BE86EEB6
:1000600082B985EC86BF86BF08951F920F920FB6A6
:100070000F9211242F933F934F935F936F937F932E
:100080008F939F93AF93BF93EF93FF9381B1887F3B
:10009000803909F449C0A0F4803709F445C048F418
:1000A000803619F1883609F43FC081113FC0D4DF92
:1000B0003BC08038E9F08838B9F18837B9F534C0E9
:1000C000803B91F138F4803AD9F0883AF9F08839D8
:1000D00069F52AC0803C41F118F4883BC9F026C07C
:1000E000883C11F1883F01F121C0109261001CC0D1
:1000F000E0916100F0E083B1EE59FF4F80830FC0C3
:1001000085EC86BF81E08093600010C01092610092
:10011000E0916100F0E0EE59FF4F808183B980915A
:1001200061008F5F8093610085EC86BFFF91EF9146
:10013000BF91AF919F918F917F916F915F914F91FF
:100140003F912F910F900FBE0F901F90189586EE44
:1001500082B985EC86BF78948FB5826A8FBD8EB5E3
:100160008A618EBD80E395E797BD86BD87B38660C3
:1001700087BB809160008130E1F72091620080911F
:10018000630030E0382B809164004091650090E07E
:10019000942B3BBD2ABD99BD88BD10926000109282
:0801A0006100E7CFF894FFCFE6
:00000001FF
